{
    "_format": "hh-sol-artifact-1",
    "contractName": "EvvelandMarketplace",
    "sourceName": "contracts/EvvelandMarketplace.sol",
    "abi": [
        {
            "inputs": [],
            "stateMutability": "nonpayable",
            "type": "constructor"
        },
        {
            "anonymous": false,
            "inputs": [
                {
                    "indexed": true,
                    "internalType": "address",
                    "name": "owner",
                    "type": "address"
                },
                {
                    "indexed": true,
                    "internalType": "address",
                    "name": "approved",
                    "type": "address"
                },
                {
                    "indexed": true,
                    "internalType": "uint256",
                    "name": "tokenId",
                    "type": "uint256"
                }
            ],
            "name": "Approval",
            "type": "event"
        },
        {
            "anonymous": false,
            "inputs": [
                {
                    "indexed": true,
                    "internalType": "address",
                    "name": "owner",
                    "type": "address"
                },
                {
                    "indexed": true,
                    "internalType": "address",
                    "name": "operator",
                    "type": "address"
                },
                {
                    "indexed": false,
                    "internalType": "bool",
                    "name": "approved",
                    "type": "bool"
                }
            ],
            "name": "ApprovalForAll",
            "type": "event"
        },
        {
            "anonymous": false,
            "inputs": [
                {
                    "indexed": true,
                    "internalType": "uint256",
                    "name": "tokenId",
                    "type": "uint256"
                },
                {
                    "indexed": false,
                    "internalType": "uint256",
                    "name": "price",
                    "type": "uint256"
                },
                {
                    "indexed": false,
                    "internalType": "address",
                    "name": "owner",
                    "type": "address"
                },
                {
                    "indexed": false,
                    "internalType": "bool",
                    "name": "isListed",
                    "type": "bool"
                }
            ],
            "name": "MarketItemCreated",
            "type": "event"
        },
        {
            "anonymous": false,
            "inputs": [
                {
                    "indexed": true,
                    "internalType": "uint256",
                    "name": "tokenId",
                    "type": "uint256"
                },
                {
                    "indexed": false,
                    "internalType": "uint256",
                    "name": "price",
                    "type": "uint256"
                },
                {
                    "indexed": false,
                    "internalType": "address",
                    "name": "owner",
                    "type": "address"
                },
                {
                    "indexed": false,
                    "internalType": "bool",
                    "name": "isListed",
                    "type": "bool"
                }
            ],
            "name": "MarketItemListed",
            "type": "event"
        },
        {
            "anonymous": false,
            "inputs": [
                {
                    "indexed": true,
                    "internalType": "uint256",
                    "name": "tokenId",
                    "type": "uint256"
                },
                {
                    "indexed": false,
                    "internalType": "uint256",
                    "name": "price",
                    "type": "uint256"
                },
                {
                    "indexed": false,
                    "internalType": "address",
                    "name": "buyer",
                    "type": "address"
                },
                {
                    "indexed": false,
                    "internalType": "bool",
                    "name": "isListed",
                    "type": "bool"
                }
            ],
            "name": "MarketItemPurchased",
            "type": "event"
        },
        {
            "anonymous": false,
            "inputs": [
                {
                    "indexed": true,
                    "internalType": "address",
                    "name": "previousOwner",
                    "type": "address"
                },
                {
                    "indexed": true,
                    "internalType": "address",
                    "name": "newOwner",
                    "type": "address"
                }
            ],
            "name": "OwnershipTransferred",
            "type": "event"
        },
        {
            "anonymous": false,
            "inputs": [
                {
                    "indexed": true,
                    "internalType": "address",
                    "name": "from",
                    "type": "address"
                },
                {
                    "indexed": true,
                    "internalType": "address",
                    "name": "to",
                    "type": "address"
                },
                {
                    "indexed": true,
                    "internalType": "uint256",
                    "name": "tokenId",
                    "type": "uint256"
                }
            ],
            "name": "Transfer",
            "type": "event"
        },
        {
            "stateMutability": "payable",
            "type": "fallback"
        },
        {
            "inputs": [
                {
                    "internalType": "address",
                    "name": "to",
                    "type": "address"
                },
                {
                    "internalType": "uint256",
                    "name": "tokenId",
                    "type": "uint256"
                }
            ],
            "name": "approve",
            "outputs": [],
            "stateMutability": "nonpayable",
            "type": "function"
        },
        {
            "inputs": [
                {
                    "internalType": "address",
                    "name": "owner",
                    "type": "address"
                }
            ],
            "name": "balanceOf",
            "outputs": [
                {
                    "internalType": "uint256",
                    "name": "",
                    "type": "uint256"
                }
            ],
            "stateMutability": "view",
            "type": "function"
        },
        {
            "inputs": [
                {
                    "internalType": "uint256",
                    "name": "tokenId",
                    "type": "uint256"
                }
            ],
            "name": "buyNFT",
            "outputs": [],
            "stateMutability": "payable",
            "type": "function"
        },
        {
            "inputs": [
                {
                    "internalType": "string",
                    "name": "_uri",
                    "type": "string"
                }
            ],
            "name": "checkTokenURIExists",
            "outputs": [
                {
                    "internalType": "bool",
                    "name": "",
                    "type": "bool"
                }
            ],
            "stateMutability": "view",
            "type": "function"
        },
        {
            "inputs": [
                {
                    "internalType": "string",
                    "name": "_uri",
                    "type": "string"
                },
                {
                    "internalType": "uint256",
                    "name": "price",
                    "type": "uint256"
                }
            ],
            "name": "createMarketItem",
            "outputs": [
                {
                    "internalType": "uint256",
                    "name": "",
                    "type": "uint256"
                }
            ],
            "stateMutability": "payable",
            "type": "function"
        },
        {
            "inputs": [],
            "name": "getAllListedMarketItems",
            "outputs": [
                {
                    "components": [
                        {
                            "internalType": "uint256",
                            "name": "tokenId",
                            "type": "uint256"
                        },
                        {
                            "internalType": "address payable",
                            "name": "owner",
                            "type": "address"
                        },
                        {
                            "internalType": "uint256",
                            "name": "price",
                            "type": "uint256"
                        },
                        {
                            "internalType": "bool",
                            "name": "isListed",
                            "type": "bool"
                        }
                    ],
                    "internalType": "struct EvvelandMarketplace.MarketItem[]",
                    "name": "",
                    "type": "tuple[]"
                }
            ],
            "stateMutability": "view",
            "type": "function"
        },
        {
            "inputs": [
                {
                    "internalType": "uint256",
                    "name": "tokenId",
                    "type": "uint256"
                }
            ],
            "name": "getApproved",
            "outputs": [
                {
                    "internalType": "address",
                    "name": "",
                    "type": "address"
                }
            ],
            "stateMutability": "view",
            "type": "function"
        },
        {
            "inputs": [],
            "name": "getListedItemsCount",
            "outputs": [
                {
                    "internalType": "uint256",
                    "name": "",
                    "type": "uint256"
                }
            ],
            "stateMutability": "view",
            "type": "function"
        },
        {
            "inputs": [],
            "name": "getListingPrice",
            "outputs": [
                {
                    "internalType": "uint256",
                    "name": "",
                    "type": "uint256"
                }
            ],
            "stateMutability": "view",
            "type": "function"
        },
        {
            "inputs": [
                {
                    "internalType": "uint256",
                    "name": "tokenId",
                    "type": "uint256"
                }
            ],
            "name": "getMarketItem",
            "outputs": [
                {
                    "components": [
                        {
                            "internalType": "uint256",
                            "name": "tokenId",
                            "type": "uint256"
                        },
                        {
                            "internalType": "address payable",
                            "name": "owner",
                            "type": "address"
                        },
                        {
                            "internalType": "uint256",
                            "name": "price",
                            "type": "uint256"
                        },
                        {
                            "internalType": "bool",
                            "name": "isListed",
                            "type": "bool"
                        }
                    ],
                    "internalType": "struct EvvelandMarketplace.MarketItem",
                    "name": "",
                    "type": "tuple"
                }
            ],
            "stateMutability": "view",
            "type": "function"
        },
        {
            "inputs": [
                {
                    "internalType": "address",
                    "name": "owner",
                    "type": "address"
                },
                {
                    "internalType": "uint256",
                    "name": "index",
                    "type": "uint256"
                }
            ],
            "name": "getTokenOfOwnerByIndex",
            "outputs": [
                {
                    "internalType": "uint256",
                    "name": "",
                    "type": "uint256"
                }
            ],
            "stateMutability": "view",
            "type": "function"
        },
        {
            "inputs": [],
            "name": "getUserOwnedNfts",
            "outputs": [
                {
                    "components": [
                        {
                            "internalType": "uint256",
                            "name": "tokenId",
                            "type": "uint256"
                        },
                        {
                            "internalType": "address payable",
                            "name": "owner",
                            "type": "address"
                        },
                        {
                            "internalType": "uint256",
                            "name": "price",
                            "type": "uint256"
                        },
                        {
                            "internalType": "bool",
                            "name": "isListed",
                            "type": "bool"
                        }
                    ],
                    "internalType": "struct EvvelandMarketplace.MarketItem[]",
                    "name": "",
                    "type": "tuple[]"
                }
            ],
            "stateMutability": "view",
            "type": "function"
        },
        {
            "inputs": [
                {
                    "internalType": "address",
                    "name": "owner",
                    "type": "address"
                },
                {
                    "internalType": "address",
                    "name": "operator",
                    "type": "address"
                }
            ],
            "name": "isApprovedForAll",
            "outputs": [
                {
                    "internalType": "bool",
                    "name": "",
                    "type": "bool"
                }
            ],
            "stateMutability": "view",
            "type": "function"
        },
        {
            "inputs": [],
            "name": "listingPrice",
            "outputs": [
                {
                    "internalType": "uint256",
                    "name": "",
                    "type": "uint256"
                }
            ],
            "stateMutability": "view",
            "type": "function"
        },
        {
            "inputs": [],
            "name": "name",
            "outputs": [
                {
                    "internalType": "string",
                    "name": "",
                    "type": "string"
                }
            ],
            "stateMutability": "view",
            "type": "function"
        },
        {
            "inputs": [],
            "name": "owner",
            "outputs": [
                {
                    "internalType": "address",
                    "name": "",
                    "type": "address"
                }
            ],
            "stateMutability": "view",
            "type": "function"
        },
        {
            "inputs": [
                {
                    "internalType": "uint256",
                    "name": "tokenId",
                    "type": "uint256"
                }
            ],
            "name": "ownerOf",
            "outputs": [
                {
                    "internalType": "address",
                    "name": "",
                    "type": "address"
                }
            ],
            "stateMutability": "view",
            "type": "function"
        },
        {
            "inputs": [
                {
                    "internalType": "uint256",
                    "name": "tokenId",
                    "type": "uint256"
                },
                {
                    "internalType": "uint256",
                    "name": "newPrice",
                    "type": "uint256"
                }
            ],
            "name": "placeNFTonSale",
            "outputs": [],
            "stateMutability": "payable",
            "type": "function"
        },
        {
            "inputs": [],
            "name": "renounceOwnership",
            "outputs": [],
            "stateMutability": "nonpayable",
            "type": "function"
        },
        {
            "inputs": [
                {
                    "internalType": "address",
                    "name": "from",
                    "type": "address"
                },
                {
                    "internalType": "address",
                    "name": "to",
                    "type": "address"
                },
                {
                    "internalType": "uint256",
                    "name": "tokenId",
                    "type": "uint256"
                }
            ],
            "name": "safeTransferFrom",
            "outputs": [],
            "stateMutability": "nonpayable",
            "type": "function"
        },
        {
            "inputs": [
                {
                    "internalType": "address",
                    "name": "from",
                    "type": "address"
                },
                {
                    "internalType": "address",
                    "name": "to",
                    "type": "address"
                },
                {
                    "internalType": "uint256",
                    "name": "tokenId",
                    "type": "uint256"
                },
                {
                    "internalType": "bytes",
                    "name": "data",
                    "type": "bytes"
                }
            ],
            "name": "safeTransferFrom",
            "outputs": [],
            "stateMutability": "nonpayable",
            "type": "function"
        },
        {
            "inputs": [
                {
                    "internalType": "address",
                    "name": "operator",
                    "type": "address"
                },
                {
                    "internalType": "bool",
                    "name": "approved",
                    "type": "bool"
                }
            ],
            "name": "setApprovalForAll",
            "outputs": [],
            "stateMutability": "nonpayable",
            "type": "function"
        },
        {
            "inputs": [
                {
                    "internalType": "bytes4",
                    "name": "interfaceId",
                    "type": "bytes4"
                }
            ],
            "name": "supportsInterface",
            "outputs": [
                {
                    "internalType": "bool",
                    "name": "",
                    "type": "bool"
                }
            ],
            "stateMutability": "view",
            "type": "function"
        },
        {
            "inputs": [],
            "name": "symbol",
            "outputs": [
                {
                    "internalType": "string",
                    "name": "",
                    "type": "string"
                }
            ],
            "stateMutability": "view",
            "type": "function"
        },
        {
            "inputs": [
                {
                    "internalType": "uint256",
                    "name": "index",
                    "type": "uint256"
                }
            ],
            "name": "tokenByIndex",
            "outputs": [
                {
                    "internalType": "uint256",
                    "name": "",
                    "type": "uint256"
                }
            ],
            "stateMutability": "view",
            "type": "function"
        },
        {
            "inputs": [
                {
                    "internalType": "uint256",
                    "name": "tokenId",
                    "type": "uint256"
                }
            ],
            "name": "tokenURI",
            "outputs": [
                {
                    "internalType": "string",
                    "name": "",
                    "type": "string"
                }
            ],
            "stateMutability": "view",
            "type": "function"
        },
        {
            "inputs": [],
            "name": "totalSupply",
            "outputs": [
                {
                    "internalType": "uint256",
                    "name": "",
                    "type": "uint256"
                }
            ],
            "stateMutability": "view",
            "type": "function"
        },
        {
            "inputs": [
                {
                    "internalType": "address",
                    "name": "from",
                    "type": "address"
                },
                {
                    "internalType": "address",
                    "name": "to",
                    "type": "address"
                },
                {
                    "internalType": "uint256",
                    "name": "tokenId",
                    "type": "uint256"
                }
            ],
            "name": "transferFrom",
            "outputs": [],
            "stateMutability": "nonpayable",
            "type": "function"
        },
        {
            "inputs": [
                {
                    "internalType": "address",
                    "name": "newOwner",
                    "type": "address"
                }
            ],
            "name": "transferOwnership",
            "outputs": [],
            "stateMutability": "nonpayable",
            "type": "function"
        },
        {
            "inputs": [
                {
                    "internalType": "uint256",
                    "name": "_newListingPrice",
                    "type": "uint256"
                }
            ],
            "name": "updateListingPrice",
            "outputs": [],
            "stateMutability": "payable",
            "type": "function"
        },
        {
            "inputs": [
                {
                    "internalType": "address",
                    "name": "_addr",
                    "type": "address"
                }
            ],
            "name": "withdraw",
            "outputs": [],
            "stateMutability": "nonpayable",
            "type": "function"
        },
        {
            "stateMutability": "payable",
            "type": "receive"
        }
    ],
    "bytecode": "0x60806040526658d15e17628000600a553480156200001c57600080fd5b506040518060400160405280601e81526020017f457676656c616e64204d6574617665727365204d61726b6574706c6163650000815250604051806040016040528060048152602001634556564560e01b8152508160009081620000819190620001ae565b506001620000908282620001ae565b505050620000ad620000a7620000b360201b60201c565b620000b7565b6200027a565b3390565b600780546001600160a01b038381166001600160a01b0319831681179093556040519116919082907f8be0079c531659141344cd1fd0a4f28419497f9722a3daafe3b4186f6b6457e090600090a35050565b634e487b7160e01b600052604160045260246000fd5b600181811c908216806200013457607f821691505b6020821081036200015557634e487b7160e01b600052602260045260246000fd5b50919050565b601f821115620001a957600081815260208120601f850160051c81016020861015620001845750805b601f850160051c820191505b81811015620001a55782815560010162000190565b5050505b505050565b81516001600160401b03811115620001ca57620001ca62000109565b620001e281620001db84546200011f565b846200015b565b602080601f8311600181146200021a5760008415620002015750858301515b600019600386901b1c1916600185901b178555620001a5565b600085815260208120601f198616915b828110156200024b578886015182559484019460019091019084016200022a565b50858210156200026a5787850151600019600388901b60f8161c191681555b5050505050600190811b01905550565b6129a3806200028a6000396000f3fe6080604052600436106101c45760003560e01c806370a08231116100f6578063ae677aa31161008f578063c87b56dd11610061578063c87b56dd14610500578063e85bea5d14610520578063e985e9c514610533578063f2fde38b1461057c57005b8063ae677aa31461048a578063b88d4fde1461049d578063c78f19f9146104bd578063c7be7a49146104d357005b806395d89b41116100c857806395d89b41146104205780639f5ccf5914610435578063a22cb4651461044a578063ac615f701461046a57005b806370a08231146103ba578063715018a6146103da5780638a58f2a3146103ef5780638da5cb5b1461040257005b80632a2bb1731161016857806351cff8d91161013a57806351cff8d91461034557806351ed828814610365578063560e9abf146103785780636352211e1461039a57005b80632a2bb173146102d057806333353f48146102f057806342842e0e146103055780634f6ccce71461032557005b8063095ea7b3116101a1578063095ea7b31461025c57806312e855851461027c57806318160ddd1461029b57806323b872dd146102b057005b806301ffc9a7146101cd57806306fdde0314610202578063081812fc1461022457005b366101cb57005b005b3480156101d957600080fd5b506101ed6101e8366004612205565b61059c565b60405190151581526020015b60405180910390f35b34801561020e57600080fd5b506102176105ee565b6040516101f99190612272565b34801561023057600080fd5b5061024461023f366004612285565b610680565b6040516001600160a01b0390911681526020016101f9565b34801561026857600080fd5b506101cb6102773660046122ba565b6106a7565b34801561028857600080fd5b50600a545b6040519081526020016101f9565b3480156102a757600080fd5b50600f5461028d565b3480156102bc57600080fd5b506101cb6102cb3660046122e4565b6107c1565b3480156102dc57600080fd5b506101ed6102eb3660046123cc565b6107f2565b3480156102fc57600080fd5b5061028d610822565b34801561031157600080fd5b506101cb6103203660046122e4565b610832565b34801561033157600080fd5b5061028d610340366004612285565b61084d565b34801561035157600080fd5b506101cb610360366004612401565b6108c1565b6101cb610373366004612285565b610901565b34801561038457600080fd5b5061038d610a94565b6040516101f9919061241c565b3480156103a657600080fd5b506102446103b5366004612285565b610b9f565b3480156103c657600080fd5b5061028d6103d5366004612401565b610bff565b3480156103e657600080fd5b506101cb610c85565b6101cb6103fd366004612493565b610c99565b34801561040e57600080fd5b506007546001600160a01b0316610244565b34801561042c57600080fd5b50610217610e3f565b34801561044157600080fd5b5061038d610e4e565b34801561045657600080fd5b506101cb6104653660046124b5565b610f7c565b34801561047657600080fd5b5061028d6104853660046122ba565b610f8b565b6101cb610498366004612285565b611003565b3480156104a957600080fd5b506101cb6104b83660046124f1565b611060565b3480156104c957600080fd5b5061028d600a5481565b3480156104df57600080fd5b506104f36104ee366004612285565b611098565b6040516101f9919061256d565b34801561050c57600080fd5b5061021761051b366004612285565b6110f3565b61028d61052e3660046125a3565b611203565b34801561053f57600080fd5b506101ed61054e3660046125e8565b6001600160a01b03918216600090815260056020908152604080832093909416825291909152205460ff1690565b34801561058857600080fd5b506101cb610597366004612401565b611349565b60006001600160e01b031982166380ac58cd60e01b14806105cd57506001600160e01b03198216635b5e139f60e01b145b806105e857506301ffc9a760e01b6001600160e01b03198316145b92915050565b6060600080546105fd9061261b565b80601f01602080910402602001604051908101604052809291908181526020018280546106299061261b565b80156106765780601f1061064b57610100808354040283529160200191610676565b820191906000526020600020905b81548152906001019060200180831161065957829003601f168201915b5050505050905090565b600061068b826113c2565b506000908152600460205260409020546001600160a01b031690565b60006106b282610b9f565b9050806001600160a01b0316836001600160a01b0316036107245760405162461bcd60e51b815260206004820152602160248201527f4552433732313a20617070726f76616c20746f2063757272656e74206f776e656044820152603960f91b60648201526084015b60405180910390fd5b336001600160a01b03821614806107405750610740813361054e565b6107b25760405162461bcd60e51b815260206004820152603d60248201527f4552433732313a20617070726f76652063616c6c6572206973206e6f7420746f60448201527f6b656e206f776e6572206f7220617070726f76656420666f7220616c6c000000606482015260840161071b565b6107bc8383611421565b505050565b6107cb338261148f565b6107e75760405162461bcd60e51b815260040161071b90612655565b6107bc83838361150d565b6000600b8260405161080491906126a2565b9081526040519081900360200190205460ff16151560011492915050565b600061082d60085490565b905090565b6107bc83838360405180602001604052806000815250611060565b6000610858600f5490565b821061089c5760405162461bcd60e51b8152602060048201526013602482015272496e646578206f7574206f6620626f756e647360681b604482015260640161071b565b600f82815481106108af576108af6126be565b90600052602060002001549050919050565b6108c961167e565b60405147906001600160a01b0383169082156108fc029083906000818181858888f193505050501580156107bc573d6000803e3d6000fd5b6000818152600c60205260408120600201549061091d83610b9f565b90506001600160a01b03811633036109775760405162461bcd60e51b815260206004820152601860248201527f596f7520616c7265616479206f776e2074686973204e46540000000000000000604482015260640161071b565b8134146109c65760405162461bcd60e51b815260206004820152601e60248201527f506c65617365207375626d6974207468652061736b696e672070726963650000604482015260640161071b565b6000838152600c60205260409020600301805460ff191690556109e960086116d8565b6109f481338561150d565b6040516001600160a01b038216903480156108fc02916000818181858888f19350505050158015610a29573d6000803e3d6000fd5b506000838152600c6020908152604080832060010180546001600160a01b0319163390811790915581518681529283015281019190915283907f316502eba5a417e5acc4b7c927bf088f35f7aada9e7cddf878319468cfa066b69060600160405180910390a2505050565b60606000610aa133610bff565b905060008167ffffffffffffffff811115610abe57610abe612320565b604051908082528060200260200182016040528015610af757816020015b610ae46121bc565b815260200190600190039081610adc5790505b50905060005b82811015610b98576000610b113383610f8b565b6000818152600c602090815260409182902082516080810184528154815260018201546001600160a01b031692810192909252600281015492820192909252600382015460ff161515606082015285519293509091859085908110610b7857610b786126be565b602002602001018190525050508080610b90906126ea565b915050610afd565b5092915050565b6000818152600260205260408120546001600160a01b0316806105e85760405162461bcd60e51b8152602060048201526018602482015277115490cdcc8c4e881a5b9d985b1a59081d1bdad95b88125160421b604482015260640161071b565b60006001600160a01b038216610c695760405162461bcd60e51b815260206004820152602960248201527f4552433732313a2061646472657373207a65726f206973206e6f7420612076616044820152683634b21037bbb732b960b91b606482015260840161071b565b506001600160a01b031660009081526003602052604090205490565b610c8d61167e565b610c97600061172f565b565b33610ca383610b9f565b6001600160a01b031614610cf95760405162461bcd60e51b815260206004820152601d60248201527f596f7520617265206e6f74206f776e6572206f662074686973204e4654000000604482015260640161071b565b6000828152600c602052604090206003015460ff1615610d5b5760405162461bcd60e51b815260206004820152601760248201527f4974656d20697320616c7265616479206f6e2073616c65000000000000000000604482015260640161071b565b600a543414610dc45760405162461bcd60e51b815260206004820152602f60248201527f4c697374696e67206665652070616964206d75737420626520657175616c207460448201526e6f206c697374696e6720707269636560881b606482015260840161071b565b6000828152600c6020526040902060038101805460ff19166001179055600201819055610df5600880546001019055565b6040805182815233602082015260019181019190915282907fc036e810416f05b8aac5ade6ae4be542deba0c2ff156ecfd406817abe8981d8d906060015b60405180910390a25050565b6060600180546105fd9061261b565b60606000610e5b600f5490565b9050600080610e6960085490565b67ffffffffffffffff811115610e8157610e81612320565b604051908082528060200260200182016040528015610eba57816020015b610ea76121bc565b815260200190600190039081610e9f5790505b50905060005b83811015610f74576000610ed38261084d565b6000818152600c6020526040902060038101549192509060ff161515600103610f5f57604080516080810182528254815260018301546001600160a01b03166020820152600283015491810191909152600382015460ff16151560608201528451859087908110610f4657610f466126be565b6020908102919091010152610f5c600186612703565b94505b50508080610f6c906126ea565b915050610ec0565b509392505050565b610f87338383611781565b5050565b6000610f9683610bff565b8210610fda5760405162461bcd60e51b8152602060048201526013602482015272496e646578206f7574206f6620626f756e647360681b604482015260640161071b565b506001600160a01b03919091166000908152600d60209081526040808320938352929052205490565b61100b61167e565b6000811161105b5760405162461bcd60e51b815260206004820152601c60248201527f5072696365206d757374206265206174206c6561737420312077656900000000604482015260640161071b565b600a55565b61106a338361148f565b6110865760405162461bcd60e51b815260040161071b90612655565b6110928484848461184f565b50505050565b6110a06121bc565b506000908152600c602090815260409182902082516080810184528154815260018201546001600160a01b03169281019290925260028101549282019290925260039091015460ff161515606082015290565b60606110fe826113c2565b600082815260066020526040812080546111179061261b565b80601f01602080910402602001604051908101604052809291908181526020018280546111439061261b565b80156111905780601f1061116557610100808354040283529160200191611190565b820191906000526020600020905b81548152906001019060200180831161117357829003601f168201915b5050505050905060006111ae60408051602081019091526000815290565b905080516000036111c0575092915050565b8151156111f25780826040516020016111da929190612716565b60405160208183030381529060405292505050919050565b6111fb84611882565b949350505050565b600061120e836107f2565b1561125b5760405162461bcd60e51b815260206004820152601860248201527f546f6b656e2055524920616c7265616479206578697374730000000000000000604482015260640161071b565b600a5434146112c85760405162461bcd60e51b815260206004820152603360248201527f4c697374696e672046656520737570706c696564206d75737420626520657175604482015272616c20746f206c697374696e6720707269636560681b606482015260840161071b565b6112d6600980546001019055565b6112e4600880546001019055565b60006112ef60095490565b90506112fb33826118f6565b6113058185611910565b61130f81846119a3565b6001600b8560405161132191906126a2565b908152604051908190036020019020805491151560ff19909216919091179055905092915050565b61135161167e565b6001600160a01b0381166113b65760405162461bcd60e51b815260206004820152602660248201527f4f776e61626c653a206e6577206f776e657220697320746865207a65726f206160448201526564647265737360d01b606482015260840161071b565b6113bf8161172f565b50565b6000818152600260205260409020546001600160a01b03166113bf5760405162461bcd60e51b8152602060048201526018602482015277115490cdcc8c4e881a5b9d985b1a59081d1bdad95b88125160421b604482015260640161071b565b600081815260046020526040902080546001600160a01b0319166001600160a01b038416908117909155819061145682610b9f565b6001600160a01b03167f8c5be1e5ebec7d5bd14f71427d1e84f3dd0314c0f7b2291e5b200ac8c7c3b92560405160405180910390a45050565b60008061149b83610b9f565b9050806001600160a01b0316846001600160a01b031614806114e257506001600160a01b0380821660009081526005602090815260408083209388168352929052205460ff165b806111fb5750836001600160a01b03166114fb84610680565b6001600160a01b031614949350505050565b826001600160a01b031661152082610b9f565b6001600160a01b0316146115465760405162461bcd60e51b815260040161071b90612745565b6001600160a01b0382166115a85760405162461bcd60e51b8152602060048201526024808201527f4552433732313a207472616e7366657220746f20746865207a65726f206164646044820152637265737360e01b606482015260840161071b565b6115b58383836001611aa3565b826001600160a01b03166115c882610b9f565b6001600160a01b0316146115ee5760405162461bcd60e51b815260040161071b90612745565b600081815260046020908152604080832080546001600160a01b03199081169091556001600160a01b0387811680865260038552838620805460001901905590871680865283862080546001019055868652600290945282852080549092168417909155905184937fddf252ad1be2c89b69c2b068fc378daa952ba7f163c4a11628f55a4df523b3ef91a4505050565b6007546001600160a01b03163314610c975760405162461bcd60e51b815260206004820181905260248201527f4f776e61626c653a2063616c6c6572206973206e6f7420746865206f776e6572604482015260640161071b565b8054806117275760405162461bcd60e51b815260206004820152601b60248201527f436f756e7465723a2064656372656d656e74206f766572666c6f770000000000604482015260640161071b565b600019019055565b600780546001600160a01b038381166001600160a01b0319831681179093556040519116919082907f8be0079c531659141344cd1fd0a4f28419497f9722a3daafe3b4186f6b6457e090600090a35050565b816001600160a01b0316836001600160a01b0316036117e25760405162461bcd60e51b815260206004820152601960248201527f4552433732313a20617070726f766520746f2063616c6c657200000000000000604482015260640161071b565b6001600160a01b03838116600081815260056020908152604080832094871680845294825291829020805460ff191686151590811790915591519182527f17307eab39ab6107e8899845ad3d59bd9653f200f220920489ca2b5937696c31910160405180910390a3505050565b61185a84848461150d565b61186684848484611b6c565b6110925760405162461bcd60e51b815260040161071b9061278a565b606061188d826113c2565b60006118a460408051602081019091526000815290565b905060008151116118c457604051806020016040528060008152506118ef565b806118ce84611c6d565b6040516020016118df929190612716565b6040516020818303038152906040525b9392505050565b610f87828260405180602001604052806000815250611d00565b6000828152600260205260409020546001600160a01b031661198b5760405162461bcd60e51b815260206004820152602e60248201527f45524337323155524953746f726167653a2055524920736574206f66206e6f6e60448201526d32bc34b9ba32b73a103a37b5b2b760911b606482015260840161071b565b60008281526006602052604090206107bc828261282a565b600081116119f35760405162461bcd60e51b815260206004820152601c60248201527f5072696365206d757374206265206174206c6561737420312077656900000000604482015260640161071b565b604080516080810182528381523360208083018281528385018681526001606080870182815260008b8152600c875289902097518855935187830180546001600160a01b0319166001600160a01b039092169190911790559151600287015591516003909501805460ff1916951515959095179094558451868152918201929092529283015283917febc41d27ebe8be4c14bf2a93e482195c90b9beb0ec0ade35aa83ca71e753a0969101610e33565b611aaf84848484611d33565b6001600160a01b038416611b0a57611b0582600f80546000838152601060205260408120829055600182018355919091527f8d1108e10bcb7c27dddfc02ed9d693a074039d026cf4ea4240b40f7d581ac8020155565b611b2d565b826001600160a01b0316846001600160a01b031614611b2d57611b2d8483611dbb565b6001600160a01b038316611b4957611b4482611e58565b611092565b836001600160a01b0316836001600160a01b031614611092576110928383611f07565b60006001600160a01b0384163b15611c6257604051630a85bd0160e11b81526001600160a01b0385169063150b7a0290611bb09033908990889088906004016128ea565b6020604051808303816000875af1925050508015611beb575060408051601f3d908101601f19168201909252611be891810190612927565b60015b611c48573d808015611c19576040519150601f19603f3d011682016040523d82523d6000602084013e611c1e565b606091505b508051600003611c405760405162461bcd60e51b815260040161071b9061278a565b805181602001fd5b6001600160e01b031916630a85bd0160e11b1490506111fb565b506001949350505050565b60606000611c7a83611f4b565b600101905060008167ffffffffffffffff811115611c9a57611c9a612320565b6040519080825280601f01601f191660200182016040528015611cc4576020820181803683370190505b5090508181016020015b600019016f181899199a1a9b1b9c1cb0b131b232b360811b600a86061a8153600a8504945084611cce57509392505050565b611d0a8383612023565b611d176000848484611b6c565b6107bc5760405162461bcd60e51b815260040161071b9061278a565b6001811115611092576001600160a01b03841615611d79576001600160a01b03841660009081526003602052604081208054839290611d73908490612944565b90915550505b6001600160a01b03831615611092576001600160a01b03831660009081526003602052604081208054839290611db0908490612703565b909155505050505050565b60006001611dc884610bff565b611dd29190612944565b6000838152600e6020526040902054909150808214611e25576001600160a01b0384166000908152600d602090815260408083208584528252808320548484528184208190558352600e90915290208190555b506000918252600e602090815260408084208490556001600160a01b039094168352600d81528383209183525290812055565b600f54600090611e6a90600190612944565b600083815260106020526040812054600f8054939450909284908110611e9257611e926126be565b9060005260206000200154905080600f8381548110611eb357611eb36126be565b600091825260208083209091019290925582815260109091526040808220849055858252812055600f805480611eeb57611eeb612957565b6001900381819060005260206000200160009055905550505050565b6000611f1283610bff565b6001600160a01b039093166000908152600d602090815260408083208684528252808320859055938252600e9052919091209190915550565b60008072184f03e93ff9f4daa797ed6e38ed64bf6a1f0160401b8310611f8a5772184f03e93ff9f4daa797ed6e38ed64bf6a1f0160401b830492506040015b6d04ee2d6d415b85acef81000000008310611fb6576d04ee2d6d415b85acef8100000000830492506020015b662386f26fc100008310611fd457662386f26fc10000830492506010015b6305f5e1008310611fec576305f5e100830492506008015b612710831061200057612710830492506004015b60648310612012576064830492506002015b600a83106105e85760010192915050565b6001600160a01b0382166120795760405162461bcd60e51b815260206004820181905260248201527f4552433732313a206d696e7420746f20746865207a65726f2061646472657373604482015260640161071b565b6000818152600260205260409020546001600160a01b0316156120de5760405162461bcd60e51b815260206004820152601c60248201527f4552433732313a20746f6b656e20616c7265616479206d696e74656400000000604482015260640161071b565b6120ec600083836001611aa3565b6000818152600260205260409020546001600160a01b0316156121515760405162461bcd60e51b815260206004820152601c60248201527f4552433732313a20746f6b656e20616c7265616479206d696e74656400000000604482015260640161071b565b6001600160a01b038216600081815260036020908152604080832080546001019055848352600290915280822080546001600160a01b0319168417905551839291907fddf252ad1be2c89b69c2b068fc378daa952ba7f163c4a11628f55a4df523b3ef908290a45050565b60405180608001604052806000815260200160006001600160a01b03168152602001600081526020016000151581525090565b6001600160e01b0319811681146113bf57600080fd5b60006020828403121561221757600080fd5b81356118ef816121ef565b60005b8381101561223d578181015183820152602001612225565b50506000910152565b6000815180845261225e816020860160208601612222565b601f01601f19169290920160200192915050565b6020815260006118ef6020830184612246565b60006020828403121561229757600080fd5b5035919050565b80356001600160a01b03811681146122b557600080fd5b919050565b600080604083850312156122cd57600080fd5b6122d68361229e565b946020939093013593505050565b6000806000606084860312156122f957600080fd5b6123028461229e565b92506123106020850161229e565b9150604084013590509250925092565b634e487b7160e01b600052604160045260246000fd5b600067ffffffffffffffff8084111561235157612351612320565b604051601f8501601f19908116603f0116810190828211818310171561237957612379612320565b8160405280935085815286868601111561239257600080fd5b858560208301376000602087830101525050509392505050565b600082601f8301126123bd57600080fd5b6118ef83833560208501612336565b6000602082840312156123de57600080fd5b813567ffffffffffffffff8111156123f557600080fd5b6111fb848285016123ac565b60006020828403121561241357600080fd5b6118ef8261229e565b6020808252825182820181905260009190848201906040850190845b8181101561248757612474838551805182526020808201516001600160a01b031690830152604080820151908301526060908101511515910152565b9284019260809290920191600101612438565b50909695505050505050565b600080604083850312156124a657600080fd5b50508035926020909101359150565b600080604083850312156124c857600080fd5b6124d18361229e565b9150602083013580151581146124e657600080fd5b809150509250929050565b6000806000806080858703121561250757600080fd5b6125108561229e565b935061251e6020860161229e565b925060408501359150606085013567ffffffffffffffff81111561254157600080fd5b8501601f8101871361255257600080fd5b61256187823560208401612336565b91505092959194509250565b815181526020808301516001600160a01b03169082015260408083015190820152606080830151151590820152608081016105e8565b600080604083850312156125b657600080fd5b823567ffffffffffffffff8111156125cd57600080fd5b6125d9858286016123ac565b95602094909401359450505050565b600080604083850312156125fb57600080fd5b6126048361229e565b91506126126020840161229e565b90509250929050565b600181811c9082168061262f57607f821691505b60208210810361264f57634e487b7160e01b600052602260045260246000fd5b50919050565b6020808252602d908201527f4552433732313a2063616c6c6572206973206e6f7420746f6b656e206f776e6560408201526c1c881bdc88185c1c1c9bdd9959609a1b606082015260800190565b600082516126b4818460208701612222565b9190910192915050565b634e487b7160e01b600052603260045260246000fd5b634e487b7160e01b600052601160045260246000fd5b6000600182016126fc576126fc6126d4565b5060010190565b808201808211156105e8576105e86126d4565b60008351612728818460208801612222565b83519083019061273c818360208801612222565b01949350505050565b60208082526025908201527f4552433732313a207472616e736665722066726f6d20696e636f72726563742060408201526437bbb732b960d91b606082015260800190565b60208082526032908201527f4552433732313a207472616e7366657220746f206e6f6e20455243373231526560408201527131b2b4bb32b91034b6b83632b6b2b73a32b960711b606082015260800190565b601f8211156107bc57600081815260208120601f850160051c810160208610156128035750805b601f850160051c820191505b818110156128225782815560010161280f565b505050505050565b815167ffffffffffffffff81111561284457612844612320565b61285881612852845461261b565b846127dc565b602080601f83116001811461288d57600084156128755750858301515b600019600386901b1c1916600185901b178555612822565b600085815260208120601f198616915b828110156128bc5788860151825594840194600190910190840161289d565b50858210156128da5787850151600019600388901b60f8161c191681555b5050505050600190811b01905550565b6001600160a01b038581168252841660208201526040810183905260806060820181905260009061291d90830184612246565b9695505050505050565b60006020828403121561293957600080fd5b81516118ef816121ef565b818103818111156105e8576105e86126d4565b634e487b7160e01b600052603160045260246000fdfea2646970667358221220fe1fe3e3295584344b9c8b46cf770cb86407c154597bfda95b0b22fcf0017d0a64736f6c63430008110033",
    "linkReferences": {},
    "deployedLinkReferences": {}
}